Wallet 1 sends 0.01 ETH to Wallet2

gasPrice 901
 LOG  gasLimit 21000
 LOG  gas 0.000000000018921
 LOG  nonce 0
 LOG  nodess {"address": "0xD68C8F299928807AF9EE72F09a32E8029178772a", "chainCode": "0x18adbffed5c6ee1bf762cf6794fec5c1e6f24281f72ee3cf08b58e7dacee0a41", "depth": 0, "fingerprint": "0x9164a955", "index": 0, "mnemonic": {"locale": "en", "path": "m", "phrase": "wolf insect price demise observe elder help estate enhance dial club cart"}, "parentFingerprint": "0x00000000", "path": "m", "privateKey": "0x9ad0f60f1d2a0f2485dc9e0aa1649b8c6cedfadbb13d5e19d37b9d88888c2f48", "publicKey": "0x02ca781111471a5968d3da6a514696b8d3221beba4f642bd03c8cdaa280297ad8f"}
 LOG  signedTx 0xf8688082038582520894a0afed1aca0584e221ed8b0423c7ec836f0dfb55872386f26fc10000802da00e4659b7f410289313609c5c5303e5f7bca39b08d35e4568139a7ad5fd0cd7fea06d3ee8d71f1b353e6b269abe1f909ed35edd54c59cdfd01306b033425af7bd04
 LOG  {"chainId": 5, "confirmations": 0, "data": "0x", "from": "0x42Aa9C492f202FEc87d8d9d5C262BF5EA6134185", "gasLimit": {"hex": "0x5208", "type": "BigNumber"}, "gasPrice": {"hex": "0x0385", "type": "BigNumber"}, "hash": "0x68cca04c79e2a03bdd3d4efe3a5d31883b98b235292db02fb466abcd5909acbb", "nonce": 0, "r": "0x0e4659b7f410289313609c5c5303e5f7bca39b08d35e4568139a7ad5fd0cd7fe", "s": "0x6d3ee8d71f1b353e6b269abe1f909ed35edd54c59cdfd01306b033425af7bd04", "to": "0xA0aFeD1ACa0584e221Ed8b0423c7Ec836F0dfB55", "type": null, "v": 45, "value": {"hex": "0x2386f26fc10000", "type": "BigNumber"}, "wait": [Function anonymous]}

 LOG  {"blockHash": "0x9bc2c5b0505697dc889e3b654c5031c17f4135f07c9702153f3d669aeda263fa", "blockNumber": 8434068, "byzantium": true, "confirmations": 2, "contractAddress": null, "cumulativeGasUsed": {"hex": "0xed8b2e", "type": "BigNumber"}, "effectiveGasPrice": {"hex": "0x0385", "type": "BigNumber"}, "from": "0x42Aa9C492f202FEc87d8d9d5C262BF5EA6134185", "gasUsed": {"hex": "0x5208", "type": "BigNumber"}, "logs": [], "logsBloom": "0x00000000000000000000000000000000000000000000000000000000000000000000000000000000000000000000000000000000000000000000000000000000000000000000000000000000000000000000000000000000000000000000000000000000000000000000000000000000000000000000000000000000000000000000000000000000000000000000000000000000000000000000000000000000000000000000000000000000000000000000000000000000000000000000000000000000000000000000000000000000000000000000000000000000000000000000000000000000000000000000000000000000000000000000000000000000", "status": 1, "to": "0xA0aFeD1ACa0584e221Ed8b0423c7Ec836F0dfB55", "transactionHash": "0x68cca04c79e2a03bdd3d4efe3a5d31883b98b235292db02fb466abcd5909acbb", "transactionIndex": 91, "type": 0}
